{
  "_format": "hh-sol-artifact-1",
  "contractName": "WhiteList",
  "sourceName": "contracts/WhiteList.sol",
  "abi": [
    {
      "inputs": [
        {
          "internalType": "uint8",
          "name": "_maxNumOfAddresses",
          "type": "uint8"
        }
      ],
      "stateMutability": "nonpayable",
      "type": "constructor"
    },
    {
      "inputs": [],
      "name": "getNumAddresses",
      "outputs": [
        {
          "internalType": "uint8",
          "name": "",
          "type": "uint8"
        }
      ],
      "stateMutability": "view",
      "type": "function"
    },
    {
      "inputs": [],
      "name": "maxNumOfAddresses",
      "outputs": [
        {
          "internalType": "uint8",
          "name": "",
          "type": "uint8"
        }
      ],
      "stateMutability": "view",
      "type": "function"
    },
    {
      "inputs": [],
      "name": "numOfAddresses",
      "outputs": [
        {
          "internalType": "uint8",
          "name": "",
          "type": "uint8"
        }
      ],
      "stateMutability": "view",
      "type": "function"
    },
    {
      "inputs": [],
      "name": "setWhitelistAddress",
      "outputs": [],
      "stateMutability": "nonpayable",
      "type": "function"
    },
    {
      "inputs": [
        {
          "internalType": "address",
          "name": "",
          "type": "address"
        }
      ],
      "name": "usersAddresses",
      "outputs": [
        {
          "internalType": "bool",
          "name": "",
          "type": "bool"
        }
      ],
      "stateMutability": "view",
      "type": "function"
    }
  ],
  "bytecode": "0x608060405234801561001057600080fd5b5060405161060738038061060783398181016040528101906100329190610068565b80600060016101000a81548160ff021916908360ff160217905550506100b5565b6000815190506100628161009e565b92915050565b60006020828403121561007a57600080fd5b600061008884828501610053565b91505092915050565b600060ff82169050919050565b6100a781610091565b81146100b257600080fd5b50565b610543806100c46000396000f3fe608060405234801561001057600080fd5b50600436106100575760003560e01c806301db3be01461005c5780631c2987e31461007a578063503ecb32146100aa578063705afe43146100c85780638ee3b380146100e6575b600080fd5b6100646100f0565b60405161007191906103c7565b60405180910390f35b610094600480360381019061008f91906102df565b610101565b6040516100a1919061036c565b60405180910390f35b6100b2610121565b6040516100bf91906103c7565b60405180910390f35b6100d0610137565b6040516100dd91906103c7565b60405180910390f35b6100ee61014a565b005b60008054906101000a900460ff1681565b60016020528060005260406000206000915054906101000a900460ff1681565b60008060009054906101000a900460ff16905090565b600060019054906101000a900460ff1681565b600160003373ffffffffffffffffffffffffffffffffffffffff1673ffffffffffffffffffffffffffffffffffffffff16815260200190815260200160002060009054906101000a900460ff16156101d7576040517f08c379a00000000000000000000000000000000000000000000000000000000081526004016101ce906103a7565b60405180910390fd5b600060019054906101000a900460ff1660ff1660008054906101000a900460ff1660ff161061023b576040517f08c379a000000000000000000000000000000000000000000000000000000000815260040161023290610387565b60405180910390fd5b60018060003373ffffffffffffffffffffffffffffffffffffffff1673ffffffffffffffffffffffffffffffffffffffff16815260200190815260200160002060006101000a81548160ff02191690831515021790555060016000808282829054906101000a900460ff166102b091906103f3565b92506101000a81548160ff021916908360ff160217905550565b6000813590506102d9816104f6565b92915050565b6000602082840312156102f157600080fd5b60006102ff848285016102ca565b91505092915050565b6103118161043c565b82525050565b60006103246011836103e2565b915061032f826104a4565b602082019050919050565b60006103476016836103e2565b9150610352826104cd565b602082019050919050565b61036681610468565b82525050565b60006020820190506103816000830184610308565b92915050565b600060208201905081810360008301526103a081610317565b9050919050565b600060208201905081810360008301526103c08161033a565b9050919050565b60006020820190506103dc600083018461035d565b92915050565b600082825260208201905092915050565b60006103fe82610468565b915061040983610468565b92508260ff0382111561041f5761041e610475565b5b828201905092915050565b600061043582610448565b9050919050565b60008115159050919050565b600073ffffffffffffffffffffffffffffffffffffffff82169050919050565b600060ff82169050919050565b7f4e487b7100000000000000000000000000000000000000000000000000000000600052601160045260246000fd5b7f4d6178206c696d69742072656163686564000000000000000000000000000000600082015250565b7f4164647265737320616c72656164792065786973747300000000000000000000600082015250565b6104ff8161042a565b811461050a57600080fd5b5056fea2646970667358221220bb4fff1e75e6d8b7cc7d71cd0188baf60039e57abf76b19d0ff21014e32a269f64736f6c63430008040033",
  "linkReferences": {},
  "deployedLinkReferences": {}
}